{
  "contractName": "HealthInsurance",
  "abi": [
    {
      "inputs": [
        {
          "internalType": "address",
          "name": "_policyNFTAddress",
          "type": "address"
        }
      ],
      "stateMutability": "nonpayable",
      "type": "constructor"
    },
    {
      "anonymous": false,
      "inputs": [
        {
          "indexed": false,
          "internalType": "string",
          "name": "policyId",
          "type": "string"
        },
        {
          "indexed": false,
          "internalType": "uint256",
          "name": "newCoverageAmount",
          "type": "uint256"
        }
      ],
      "name": "CoverageAdjusted",
      "type": "event"
    },
    {
      "anonymous": false,
      "inputs": [
        {
          "indexed": false,
          "internalType": "string",
          "name": "policyId",
          "type": "string"
        },
        {
          "indexed": false,
          "internalType": "uint256",
          "name": "newHealthPoints",
          "type": "uint256"
        },
        {
          "indexed": false,
          "internalType": "uint256",
          "name": "rollingAverage",
          "type": "uint256"
        }
      ],
      "name": "HealthPointsUpdated",
      "type": "event"
    },
    {
      "anonymous": false,
      "inputs": [
        {
          "indexed": false,
          "internalType": "string",
          "name": "policyId",
          "type": "string"
        },
        {
          "indexed": false,
          "internalType": "address",
          "name": "userWalletAddress",
          "type": "address"
        }
      ],
      "name": "PolicyCreated",
      "type": "event"
    },
    {
      "anonymous": false,
      "inputs": [
        {
          "indexed": false,
          "internalType": "string",
          "name": "policyId",
          "type": "string"
        },
        {
          "indexed": false,
          "internalType": "uint256",
          "name": "newPremiumAmount",
          "type": "uint256"
        }
      ],
      "name": "PremiumAdjusted",
      "type": "event"
    },
    {
      "inputs": [
        {
          "internalType": "string",
          "name": "",
          "type": "string"
        }
      ],
      "name": "policies",
      "outputs": [
        {
          "internalType": "string",
          "name": "userId",
          "type": "string"
        },
        {
          "internalType": "address",
          "name": "userWalletAddress",
          "type": "address"
        },
        {
          "internalType": "uint256",
          "name": "initialHealthScore",
          "type": "uint256"
        },
        {
          "internalType": "uint256",
          "name": "coverageAmount",
          "type": "uint256"
        },
        {
          "internalType": "uint256",
          "name": "premiumAmount",
          "type": "uint256"
        },
        {
          "internalType": "uint256",
          "name": "coverageDuration",
          "type": "uint256"
        },
        {
          "internalType": "uint256",
          "name": "currentHealthPoints",
          "type": "uint256"
        },
        {
          "internalType": "uint256",
          "name": "rollingAverage",
          "type": "uint256"
        },
        {
          "internalType": "uint256",
          "name": "k",
          "type": "uint256"
        },
        {
          "internalType": "bool",
          "name": "isActive",
          "type": "bool"
        }
      ],
      "stateMutability": "view",
      "type": "function",
      "constant": true
    },
    {
      "inputs": [
        {
          "internalType": "uint256",
          "name": "",
          "type": "uint256"
        }
      ],
      "name": "policyIds",
      "outputs": [
        {
          "internalType": "string",
          "name": "",
          "type": "string"
        }
      ],
      "stateMutability": "view",
      "type": "function",
      "constant": true
    },
    {
      "inputs": [
        {
          "internalType": "string",
          "name": "",
          "type": "string"
        }
      ],
      "name": "policyToTokenId",
      "outputs": [
        {
          "internalType": "uint256",
          "name": "",
          "type": "uint256"
        }
      ],
      "stateMutability": "view",
      "type": "function",
      "constant": true
    },
    {
      "inputs": [
        {
          "internalType": "string",
          "name": "policyId",
          "type": "string"
        },
        {
          "internalType": "string",
          "name": "userId",
          "type": "string"
        },
        {
          "internalType": "address",
          "name": "userWalletAddress",
          "type": "address"
        },
        {
          "internalType": "uint256",
          "name": "initialHealthScore",
          "type": "uint256"
        },
        {
          "internalType": "uint256",
          "name": "coverageDuration",
          "type": "uint256"
        }
      ],
      "name": "createPolicy",
      "outputs": [],
      "stateMutability": "nonpayable",
      "type": "function"
    },
    {
      "inputs": [
        {
          "internalType": "string",
          "name": "policyId",
          "type": "string"
        },
        {
          "internalType": "uint256",
          "name": "newHealthPoints",
          "type": "uint256"
        }
      ],
      "name": "updateHealthPoints",
      "outputs": [],
      "stateMutability": "nonpayable",
      "type": "function"
    },
    {
      "inputs": [
        {
          "internalType": "string",
          "name": "policyId",
          "type": "string"
        }
      ],
      "name": "getPolicyDetails",
      "outputs": [
        {
          "components": [
            {
              "internalType": "string",
              "name": "userId",
              "type": "string"
            },
            {
              "internalType": "address",
              "name": "userWalletAddress",
              "type": "address"
            },
            {
              "internalType": "uint256",
              "name": "initialHealthScore",
              "type": "uint256"
            },
            {
              "internalType": "uint256",
              "name": "coverageAmount",
              "type": "uint256"
            },
            {
              "internalType": "uint256",
              "name": "premiumAmount",
              "type": "uint256"
            },
            {
              "internalType": "uint256",
              "name": "coverageDuration",
              "type": "uint256"
            },
            {
              "internalType": "uint256",
              "name": "currentHealthPoints",
              "type": "uint256"
            },
            {
              "internalType": "uint256",
              "name": "rollingAverage",
              "type": "uint256"
            },
            {
              "internalType": "uint256",
              "name": "k",
              "type": "uint256"
            },
            {
              "internalType": "bool",
              "name": "isActive",
              "type": "bool"
            }
          ],
          "internalType": "struct HealthInsurance.Policy",
          "name": "",
          "type": "tuple"
        }
      ],
      "stateMutability": "view",
      "type": "function",
      "constant": true
    },
    {
      "inputs": [
        {
          "internalType": "string",
          "name": "policyId",
          "type": "string"
        }
      ],
      "name": "getTokenIdForPolicy",
      "outputs": [
        {
          "internalType": "uint256",
          "name": "",
          "type": "uint256"
        }
      ],
      "stateMutability": "view",
      "type": "function",
      "constant": true
    }
  ],
  "bytecode": "0x608060405234801562000010575f80fd5b5060405162001c7f38038062001c7f8339818101604052810190620000369190620000e2565b8060035f6101000a81548173ffffffffffffffffffffffffffffffffffffffff021916908373ffffffffffffffffffffffffffffffffffffffff1602179055505062000112565b5f80fd5b5f73ffffffffffffffffffffffffffffffffffffffff82169050919050565b5f620000ac8262000081565b9050919050565b620000be81620000a0565b8114620000c9575f80fd5b50565b5f81519050620000dc81620000b3565b92915050565b5f60208284031215620000fa57620000f96200007d565b5b5f6200010984828501620000cc565b91505092915050565b611b5f80620001205f395ff3fe608060405234801561000f575f80fd5b506004361061007b575f3560e01c80634a7ba3e5116100595780634a7ba3e5146100fb57806356929f731461013457806366dcb40f14610150578063e4f2ea96146101805761007b565b80630e7bea2d1461007f5780632f500f6c1461009b57806344893695146100cb575b5f80fd5b61009960048036038101906100949190610eda565b6101b0565b005b6100b560048036038101906100b09190610f89565b6104db565b6040516100c2919061102e565b60405180910390f35b6100e560048036038101906100e0919061104e565b610581565b6040516100f291906110a4565b60405180910390f35b6101156004803603810190610110919061104e565b6105ae565b60405161012b9a999897969594939291906110e6565b60405180910390f35b61014e60048036038101906101499190611187565b6106c6565b005b61016a6004803603810190610165919061104e565b6109f7565b60405161017791906110a4565b60405180910390f35b61019a6004803603810190610195919061104e565b610a1e565b6040516101a7919061132d565b60405180910390f35b600182101580156101c2575060648211155b610201576040517f08c379a00000000000000000000000000000000000000000000000000000000081526004016101f8906113bd565b60405180910390fd5b5f8111610243576040517f08c379a000000000000000000000000000000000000000000000000000000000815260040161023a9061144b565b60405180910390fd5b5f61024d83610b9a565b90505f61025984610c1b565b90506040518061014001604052808781526020018673ffffffffffffffffffffffffffffffffffffffff16815260200185815260200182815260200183815260200184815260200185815260200185815260200160018152602001600115158152505f886040516102ca91906114a3565b90815260200160405180910390205f820151815f0190816102eb91906116b3565b506020820151816001015f6101000a81548173ffffffffffffffffffffffffffffffffffffffff021916908373ffffffffffffffffffffffffffffffffffffffff16021790555060408201518160020155606082015181600301556080820151816004015560a0820151816005015560c0820151816006015560e082015181600701556101008201518160080155610120820151816009015f6101000a81548160ff021916908315150217905550905050600187908060018154018082558091505060019003905f5260205f20015f9091909190915090816103cd91906116b3565b505f60035f9054906101000a900473ffffffffffffffffffffffffffffffffffffffff1673ffffffffffffffffffffffffffffffffffffffff1663046fa17987878a86888a6040518763ffffffff1660e01b815260040161043396959493929190611782565b6020604051808303815f875af115801561044f573d5f803e3d5ffd5b505050506040513d601f19601f8201168201806040525081019061047391906117fc565b90508060028960405161048691906114a3565b9081526020016040518091039020819055507f24860d48ab64a0236a070c1b16606b2910e7ef73e3d7a6249f7d797dc8f0810a88876040516104c9929190611827565b60405180910390a15050505050505050565b600181815481106104ea575f80fd5b905f5260205f20015f915090508054610502906114e6565b80601f016020809104026020016040519081016040528092919081815260200182805461052e906114e6565b80156105795780601f1061055057610100808354040283529160200191610579565b820191905f5260205f20905b81548152906001019060200180831161055c57829003601f168201915b505050505081565b6002818051602081018201805184825260208301602085012081835280955050505050505f915090505481565b5f818051602081018201805184825260208301602085012081835280955050505050505f91509050805f0180546105e4906114e6565b80601f0160208091040260200160405190810160405280929190818152602001828054610610906114e6565b801561065b5780601f106106325761010080835404028352916020019161065b565b820191905f5260205f20905b81548152906001019060200180831161063e57829003601f168201915b505050505090806001015f9054906101000a900473ffffffffffffffffffffffffffffffffffffffff1690806002015490806003015490806004015490806005015490806006015490806007015490806008015490806009015f9054906101000a900460ff1690508a565b5f826040516106d591906114a3565b90815260200160405180910390206009015f9054906101000a900460ff16610732576040517f08c379a00000000000000000000000000000000000000000000000000000000081526004016107299061189f565b60405180910390fd5b5f8110158015610743575060648111155b610782576040517f08c379a00000000000000000000000000000000000000000000000000000000081526004016107799061192d565b60405180910390fd5b5f808360405161079291906114a3565b908152602001604051809103902090505f600182600801546107b49190611978565b90505f82600701548411156107f457818360070154856107d491906119ab565b6107de9190611a0b565b83600701546107ed9190611978565b905061083a565b8260070154841015610831578184846007015461081191906119ab565b61081b9190611a0b565b836007015461082a91906119ab565b9050610839565b826007015490505b5b8383600601819055508083600701819055506001836008015f8282546108609190611978565b925050819055505f61087182610b9a565b90505f61087d83610c1b565b90508185600401819055508085600301819055505f6002886040516108a291906114a3565b908152602001604051809103902054905060035f9054906101000a900473ffffffffffffffffffffffffffffffffffffffff1673ffffffffffffffffffffffffffffffffffffffff16630f349f77828685876040518563ffffffff1660e01b81526004016109139493929190611a3b565b5f604051808303815f87803b15801561092a575f80fd5b505af115801561093c573d5f803e3d5ffd5b505050507fd000e2d7c4915cbfc9333c4805614e82a8821fd1684a33375842102ad6519eff88888660405161097393929190611a7e565b60405180910390a17f09da2b779b5218e2b6d0ad07ef1dbebc952a346d2c26ab02811bdecb549cff6488846040516109ac929190611aba565b60405180910390a17f03c1d0f2ae0fb85be3fe46b81a7665f4efc2ea6485058bc487ae302a86a1df3e88836040516109e5929190611aba565b60405180910390a15050505050505050565b5f600282604051610a0891906114a3565b9081526020016040518091039020549050919050565b610a26610c9e565b5f82604051610a3591906114a3565b9081526020016040518091039020604051806101400160405290815f82018054610a5e906114e6565b80601f0160208091040260200160405190810160405280929190818152602001828054610a8a906114e6565b8015610ad55780601f10610aac57610100808354040283529160200191610ad5565b820191905f5260205f20905b815481529060010190602001808311610ab857829003601f168201915b50505050508152602001600182015f9054906101000a900473ffffffffffffffffffffffffffffffffffffffff1673ffffffffffffffffffffffffffffffffffffffff1673ffffffffffffffffffffffffffffffffffffffff16815260200160028201548152602001600382015481526020016004820154815260200160058201548152602001600682015481526020016007820154815260200160088201548152602001600982015f9054906101000a900460ff1615151515815250509050919050565b5f6032821015610bdf57671bc16d674ec80000826032610bba91906119ab565b610bc49190611ae8565b68056bc75e2d63100000610bd89190611978565b9050610c16565b671bc16d674ec80000603283610bf591906119ab565b610bff9190611ae8565b68056bc75e2d63100000610c1391906119ab565b90505b919050565b5f6032821015610c61576801158e460913d00000826032610c3c91906119ab565b610c469190611ae8565b683635c9adc5dea00000610c5a91906119ab565b9050610c99565b6801158e460913d00000603283610c7891906119ab565b610c829190611ae8565b683635c9adc5dea00000610c969190611978565b90505b919050565b604051806101400160405280606081526020015f73ffffffffffffffffffffffffffffffffffffffff1681526020015f81526020015f81526020015f81526020015f81526020015f81526020015f81526020015f81526020015f151581525090565b5f604051905090565b5f80fd5b5f80fd5b5f80fd5b5f80fd5b5f601f19601f8301169050919050565b7f4e487b71000000000000000000000000000000000000000000000000000000005f52604160045260245ffd5b610d5f82610d19565b810181811067ffffffffffffffff82111715610d7e57610d7d610d29565b5b80604052505050565b5f610d90610d00565b9050610d9c8282610d56565b919050565b5f67ffffffffffffffff821115610dbb57610dba610d29565b5b610dc482610d19565b9050602081019050919050565b828183375f83830152505050565b5f610df1610dec84610da1565b610d87565b905082815260208101848484011115610e0d57610e0c610d15565b5b610e18848285610dd1565b509392505050565b5f82601f830112610e3457610e33610d11565b5b8135610e44848260208601610ddf565b91505092915050565b5f73ffffffffffffffffffffffffffffffffffffffff82169050919050565b5f610e7682610e4d565b9050919050565b610e8681610e6c565b8114610e90575f80fd5b50565b5f81359050610ea181610e7d565b92915050565b5f819050919050565b610eb981610ea7565b8114610ec3575f80fd5b50565b5f81359050610ed481610eb0565b92915050565b5f805f805f60a08688031215610ef357610ef2610d09565b5b5f86013567ffffffffffffffff811115610f1057610f0f610d0d565b5b610f1c88828901610e20565b955050602086013567ffffffffffffffff811115610f3d57610f3c610d0d565b5b610f4988828901610e20565b9450506040610f5a88828901610e93565b9350506060610f6b88828901610ec6565b9250506080610f7c88828901610ec6565b9150509295509295909350565b5f60208284031215610f9e57610f9d610d09565b5b5f610fab84828501610ec6565b91505092915050565b5f81519050919050565b5f82825260208201905092915050565b5f5b83811015610feb578082015181840152602081019050610fd0565b5f8484015250505050565b5f61100082610fb4565b61100a8185610fbe565b935061101a818560208601610fce565b61102381610d19565b840191505092915050565b5f6020820190508181035f8301526110468184610ff6565b905092915050565b5f6020828403121561106357611062610d09565b5b5f82013567ffffffffffffffff8111156110805761107f610d0d565b5b61108c84828501610e20565b91505092915050565b61109e81610ea7565b82525050565b5f6020820190506110b75f830184611095565b92915050565b6110c681610e6c565b82525050565b5f8115159050919050565b6110e0816110cc565b82525050565b5f610140820190508181035f8301526110ff818d610ff6565b905061110e602083018c6110bd565b61111b604083018b611095565b611128606083018a611095565b6111356080830189611095565b61114260a0830188611095565b61114f60c0830187611095565b61115c60e0830186611095565b61116a610100830185611095565b6111786101208301846110d7565b9b9a5050505050505050505050565b5f806040838503121561119d5761119c610d09565b5b5f83013567ffffffffffffffff8111156111ba576111b9610d0d565b5b6111c685828601610e20565b92505060206111d785828601610ec6565b9150509250929050565b5f82825260208201905092915050565b5f6111fb82610fb4565b61120581856111e1565b9350611215818560208601610fce565b61121e81610d19565b840191505092915050565b61123281610e6c565b82525050565b61124181610ea7565b82525050565b611250816110cc565b82525050565b5f61014083015f8301518482035f86015261127182826111f1565b91505060208301516112866020860182611229565b5060408301516112996040860182611238565b5060608301516112ac6060860182611238565b5060808301516112bf6080860182611238565b5060a08301516112d260a0860182611238565b5060c08301516112e560c0860182611238565b5060e08301516112f860e0860182611238565b5061010083015161130d610100860182611238565b50610120830151611322610120860182611247565b508091505092915050565b5f6020820190508181035f8301526113458184611256565b905092915050565b7f4865616c74682073636f7265206d757374206265206265747765656e203120615f8201527f6e64203130300000000000000000000000000000000000000000000000000000602082015250565b5f6113a7602683610fbe565b91506113b28261134d565b604082019050919050565b5f6020820190508181035f8301526113d48161139b565b9050919050565b7f436f766572616765206475726174696f6e206d757374206265206772656174655f8201527f72207468616e2030000000000000000000000000000000000000000000000000602082015250565b5f611435602883610fbe565b9150611440826113db565b604082019050919050565b5f6020820190508181035f83015261146281611429565b9050919050565b5f81905092915050565b5f61147d82610fb4565b6114878185611469565b9350611497818560208601610fce565b80840191505092915050565b5f6114ae8284611473565b915081905092915050565b7f4e487b71000000000000000000000000000000000000000000000000000000005f52602260045260245ffd5b5f60028204905060018216806114fd57607f821691505b6020821081036115105761150f6114b9565b5b50919050565b5f819050815f5260205f209050919050565b5f6020601f8301049050919050565b5f82821b905092915050565b5f600883026115727fffffffffffffffffffffffffffffffffffffffffffffffffffffffffffffffff82611537565b61157c8683611537565b95508019841693508086168417925050509392505050565b5f819050919050565b5f6115b76115b26115ad84610ea7565b611594565b610ea7565b9050919050565b5f819050919050565b6115d08361159d565b6115e46115dc826115be565b848454611543565b825550505050565b5f90565b6115f86115ec565b6116038184846115c7565b505050565b5b818110156116265761161b5f826115f0565b600181019050611609565b5050565b601f82111561166b5761163c81611516565b61164584611528565b81016020851015611654578190505b61166861166085611528565b830182611608565b50505b505050565b5f82821c905092915050565b5f61168b5f1984600802611670565b1980831691505092915050565b5f6116a3838361167c565b9150826002028217905092915050565b6116bc82610fb4565b67ffffffffffffffff8111156116d5576116d4610d29565b5b6116df82546114e6565b6116ea82828561162a565b5f60209050601f83116001811461171b575f8415611709578287015190505b6117138582611698565b86555061177a565b601f19841661172986611516565b5f5b828110156117505784890151825560018201915060208501945060208101905061172b565b8683101561176d5784890151611769601f89168261167c565b8355505b6001600288020188555050505b505050505050565b5f60c0820190506117955f8301896110bd565b6117a26020830188611095565b81810360408301526117b48187610ff6565b90506117c36060830186611095565b6117d06080830185611095565b6117dd60a0830184611095565b979650505050505050565b5f815190506117f681610eb0565b92915050565b5f6020828403121561181157611810610d09565b5b5f61181e848285016117e8565b91505092915050565b5f6040820190508181035f83015261183f8185610ff6565b905061184e60208301846110bd565b9392505050565b7f506f6c696379206973206e6f74206163746976650000000000000000000000005f82015250565b5f611889601483610fbe565b915061189482611855565b602082019050919050565b5f6020820190508181035f8301526118b68161187d565b9050919050565b7f4865616c746820706f696e7473206d757374206265206265747765656e2030205f8201527f616e642031303000000000000000000000000000000000000000000000000000602082015250565b5f611917602783610fbe565b9150611922826118bd565b604082019050919050565b5f6020820190508181035f8301526119448161190b565b9050919050565b7f4e487b71000000000000000000000000000000000000000000000000000000005f52601160045260245ffd5b5f61198282610ea7565b915061198d83610ea7565b92508282019050808211156119a5576119a461194b565b5b92915050565b5f6119b582610ea7565b91506119c083610ea7565b92508282039050818111156119d8576119d761194b565b5b92915050565b7f4e487b71000000000000000000000000000000000000000000000000000000005f52601260045260245ffd5b5f611a1582610ea7565b9150611a2083610ea7565b925082611a3057611a2f6119de565b5b828204905092915050565b5f608082019050611a4e5f830187611095565b611a5b6020830186611095565b611a686040830185611095565b611a756060830184611095565b95945050505050565b5f6060820190508181035f830152611a968186610ff6565b9050611aa56020830185611095565b611ab26040830184611095565b949350505050565b5f6040820190508181035f830152611ad28185610ff6565b9050611ae16020830184611095565b9392505050565b5f611af282610ea7565b9150611afd83610ea7565b9250828202611b0b81610ea7565b91508282048414831517611b2257611b2161194b565b5b509291505056fea26469706673582212207b26a7f474251622fc00545cca250eab68e1a554feac9c0bdacc4f7a76a38cd664736f6c63430008140033",
  "immutableReferences": {},
  "source": "// SPDX-License-Identifier: MIT\npragma solidity ^0.8.20;\n\nimport \"./PolicyNFT.sol\"; // Import the NFT contract\n\ncontract HealthInsurance {\n    // Policy structure\n    struct Policy {\n        string userId;               // Unique identifier for the user\n        address userWalletAddress;   // User's wallet address\n        uint256 initialHealthScore; // Baseline health score (1-100)\n        uint256 coverageAmount;     // Coverage amount in wei or tokens\n        uint256 premiumAmount;      // Premium amount in wei or tokens\n        uint256 coverageDuration;   // Coverage duration in days\n        uint256 currentHealthPoints; // Current health points (1-100)\n        uint256 rollingAverage;     // Rolling average of health points\n        uint256 k;                  // Number of updates (for rolling average)\n        bool isActive;               // Policy status\n    }\n\n    // Constants for premium and coverage adjustment\n    uint256 private constant BASE_PREMIUM = 100 ether; // Base premium at 50 health points\n    uint256 private constant BASE_COVERAGE = 1000 ether; // Base coverage at 50 health points\n    uint256 private constant PREMIUM_SENSITIVITY = 2 ether; // Premium change per health point\n    uint256 private constant COVERAGE_SENSITIVITY = 20 ether; // Coverage change per health point\n\n    // Mapping to store policies by policyId\n    mapping(string => Policy) public policies;\n    string[] public policyIds; // List of all policy IDs\n\n    // Mapping to store token IDs for each policy\n    mapping(string => uint256) public policyToTokenId;\n\n    // Reference to the NFT contract\n    PolicyNFT private policyNFT;\n\n    // Events\n    event PolicyCreated(string policyId, address userWalletAddress);\n    event HealthPointsUpdated(string policyId, uint256 newHealthPoints, uint256 rollingAverage);\n    event PremiumAdjusted(string policyId, uint256 newPremiumAmount);\n    event CoverageAdjusted(string policyId, uint256 newCoverageAmount);\n\n    // Constructor to initialize the NFT contract\n    constructor(address _policyNFTAddress) {\n        policyNFT = PolicyNFT(_policyNFTAddress);\n    }\n\n    // Internal function to calculate premium based on health points\n    function _calculatePremium(uint256 healthPoints) internal pure returns (uint256) {\n        // Premium increases as health points decrease below 50, and decreases as health points increase above 50\n        if (healthPoints < 50) {\n            return BASE_PREMIUM + (50 - healthPoints) * PREMIUM_SENSITIVITY;\n        } else {\n            return BASE_PREMIUM - (healthPoints - 50) * PREMIUM_SENSITIVITY;\n        }\n    }\n\n    // Internal function to calculate coverage based on health points\n    function _calculateCoverage(uint256 healthPoints) internal pure returns (uint256) {\n        // Coverage decreases as health points decrease below 50, and increases as health points increase above 50\n        if (healthPoints < 50) {\n            return BASE_COVERAGE - (50 - healthPoints) * COVERAGE_SENSITIVITY;\n        } else {\n            return BASE_COVERAGE + (healthPoints - 50) * COVERAGE_SENSITIVITY;\n        }\n    }\n\n    // Create a new policy\n    function createPolicy(\n        string memory policyId,\n        string memory userId,\n        address userWalletAddress,\n        uint256 initialHealthScore,\n        uint256 coverageDuration\n    ) public {\n        require(initialHealthScore >= 1 && initialHealthScore <= 100, \"Health score must be between 1 and 100\");\n        require(coverageDuration > 0, \"Coverage duration must be greater than 0\");\n\n        // Calculate initial premium and coverage\n        uint256 initialPremium = _calculatePremium(initialHealthScore);\n        uint256 initialCoverage = _calculateCoverage(initialHealthScore);\n\n        policies[policyId] = Policy({\n            userId: userId,\n            userWalletAddress: userWalletAddress,\n            initialHealthScore: initialHealthScore,\n            coverageAmount: initialCoverage,\n            premiumAmount: initialPremium,\n            coverageDuration: coverageDuration,\n            currentHealthPoints: initialHealthScore,\n            rollingAverage: initialHealthScore, // Initialize rolling average\n            k: 1, // Initialize k\n            isActive: true\n        });\n\n        policyIds.push(policyId);\n\n        // Mint an NFT for the policy\n        uint256 tokenId = policyNFT.mintPolicyNFT(\n            userWalletAddress, // Recipient address\n            initialHealthScore, // Health points\n            userId, // User ID\n            initialCoverage, // Coverage amount\n            initialPremium, // Premium amount\n            coverageDuration // Coverage duration\n        );\n        policyToTokenId[policyId] = tokenId; // Store the tokenId\n\n        emit PolicyCreated(policyId, userWalletAddress);\n    }\n\n    // Update health points with rolling average\n    function updateHealthPoints(string memory policyId, uint256 newHealthPoints) public {\n        require(policies[policyId].isActive, \"Policy is not active\");\n        require(newHealthPoints >= 0 && newHealthPoints <= 100, \"Health points must be between 0 and 100\");\n\n        Policy storage policy = policies[policyId];\n\n        uint256 k = policy.k + 1;\n        uint256 newAvg;\n        \n        // Handle the rolling average calculation safely\n        if (newHealthPoints > policy.rollingAverage) {\n            // If new health points are higher, we can safely add\n            newAvg = policy.rollingAverage + (newHealthPoints - policy.rollingAverage) / k;\n        } else if (newHealthPoints < policy.rollingAverage) {\n            // If new health points are lower, we can safely subtract\n            newAvg = policy.rollingAverage - (policy.rollingAverage - newHealthPoints) / k;\n        } else {\n            // If equal, no change\n            newAvg = policy.rollingAverage;\n        }\n\n        // Update policy state\n        policy.currentHealthPoints = newHealthPoints;\n        policy.rollingAverage = newAvg;\n        policy.k += 1;\n\n        // Adjust premium and coverage based on rolling average\n        uint256 newPremium = _calculatePremium(newAvg);\n        uint256 newCoverage = _calculateCoverage(newAvg);\n\n        policy.premiumAmount = newPremium;\n        policy.coverageAmount = newCoverage;\n\n        // Update the NFT's metadata\n        uint256 tokenId = policyToTokenId[policyId];\n        policyNFT.updatePolicyNFT(tokenId, newAvg, newCoverage, newPremium);\n\n        emit HealthPointsUpdated(policyId, newHealthPoints, newAvg);\n        emit PremiumAdjusted(policyId, newPremium);\n        emit CoverageAdjusted(policyId, newCoverage);\n    }\n\n    // Get policy details\n    function getPolicyDetails(string memory policyId) public view returns (Policy memory) {\n        return policies[policyId];\n    }\n\n    // Get token ID for a policy\n    function getTokenIdForPolicy(string memory policyId) public view returns (uint256) {\n        return policyToTokenId[policyId];\n    }\n}",
  "sourcePath": "/home/vrin/health-insurance-blockchain/contracts/HealthInsurance.sol",
  "compiler": {
    "name": "solc",
    "version": "0.8.20+commit.a1b79de6.Emscripten.clang"
  },
  "schemaVersion": "3.4.16",
  "updatedAt": "2025-03-09T01:44:31.696Z",
  "networkType": "ethereum",
  "devdoc": {
    "kind": "dev",
    "methods": {},
    "version": 1
  },
  "userdoc": {
    "kind": "user",
    "methods": {},
    "version": 1
  }
}