{
  "contractName": "PolicyNFT",
  "abi": [
    {
      "inputs": [],
      "stateMutability": "nonpayable",
      "type": "constructor"
    },
    {
      "inputs": [
        {
          "internalType": "address",
          "name": "sender",
          "type": "address"
        },
        {
          "internalType": "uint256",
          "name": "tokenId",
          "type": "uint256"
        },
        {
          "internalType": "address",
          "name": "owner",
          "type": "address"
        }
      ],
      "name": "ERC721IncorrectOwner",
      "type": "error"
    },
    {
      "inputs": [
        {
          "internalType": "address",
          "name": "operator",
          "type": "address"
        },
        {
          "internalType": "uint256",
          "name": "tokenId",
          "type": "uint256"
        }
      ],
      "name": "ERC721InsufficientApproval",
      "type": "error"
    },
    {
      "inputs": [
        {
          "internalType": "address",
          "name": "approver",
          "type": "address"
        }
      ],
      "name": "ERC721InvalidApprover",
      "type": "error"
    },
    {
      "inputs": [
        {
          "internalType": "address",
          "name": "operator",
          "type": "address"
        }
      ],
      "name": "ERC721InvalidOperator",
      "type": "error"
    },
    {
      "inputs": [
        {
          "internalType": "address",
          "name": "owner",
          "type": "address"
        }
      ],
      "name": "ERC721InvalidOwner",
      "type": "error"
    },
    {
      "inputs": [
        {
          "internalType": "address",
          "name": "receiver",
          "type": "address"
        }
      ],
      "name": "ERC721InvalidReceiver",
      "type": "error"
    },
    {
      "inputs": [
        {
          "internalType": "address",
          "name": "sender",
          "type": "address"
        }
      ],
      "name": "ERC721InvalidSender",
      "type": "error"
    },
    {
      "inputs": [
        {
          "internalType": "uint256",
          "name": "tokenId",
          "type": "uint256"
        }
      ],
      "name": "ERC721NonexistentToken",
      "type": "error"
    },
    {
      "anonymous": false,
      "inputs": [
        {
          "indexed": true,
          "internalType": "address",
          "name": "owner",
          "type": "address"
        },
        {
          "indexed": true,
          "internalType": "address",
          "name": "approved",
          "type": "address"
        },
        {
          "indexed": true,
          "internalType": "uint256",
          "name": "tokenId",
          "type": "uint256"
        }
      ],
      "name": "Approval",
      "type": "event"
    },
    {
      "anonymous": false,
      "inputs": [
        {
          "indexed": true,
          "internalType": "address",
          "name": "owner",
          "type": "address"
        },
        {
          "indexed": true,
          "internalType": "address",
          "name": "operator",
          "type": "address"
        },
        {
          "indexed": false,
          "internalType": "bool",
          "name": "approved",
          "type": "bool"
        }
      ],
      "name": "ApprovalForAll",
      "type": "event"
    },
    {
      "anonymous": false,
      "inputs": [
        {
          "indexed": false,
          "internalType": "uint256",
          "name": "tokenId",
          "type": "uint256"
        },
        {
          "indexed": false,
          "internalType": "address",
          "name": "recipient",
          "type": "address"
        },
        {
          "indexed": false,
          "internalType": "uint256",
          "name": "healthPoints",
          "type": "uint256"
        }
      ],
      "name": "PolicyNFTMinted",
      "type": "event"
    },
    {
      "anonymous": false,
      "inputs": [
        {
          "indexed": false,
          "internalType": "uint256",
          "name": "tokenId",
          "type": "uint256"
        },
        {
          "indexed": false,
          "internalType": "uint256",
          "name": "newHealthPoints",
          "type": "uint256"
        },
        {
          "indexed": false,
          "internalType": "uint256",
          "name": "newCoverageAmount",
          "type": "uint256"
        },
        {
          "indexed": false,
          "internalType": "uint256",
          "name": "newPremiumAmount",
          "type": "uint256"
        }
      ],
      "name": "PolicyNFTUpdated",
      "type": "event"
    },
    {
      "anonymous": false,
      "inputs": [
        {
          "indexed": true,
          "internalType": "address",
          "name": "from",
          "type": "address"
        },
        {
          "indexed": true,
          "internalType": "address",
          "name": "to",
          "type": "address"
        },
        {
          "indexed": true,
          "internalType": "uint256",
          "name": "tokenId",
          "type": "uint256"
        }
      ],
      "name": "Transfer",
      "type": "event"
    },
    {
      "inputs": [
        {
          "internalType": "address",
          "name": "to",
          "type": "address"
        },
        {
          "internalType": "uint256",
          "name": "tokenId",
          "type": "uint256"
        }
      ],
      "name": "approve",
      "outputs": [],
      "stateMutability": "nonpayable",
      "type": "function"
    },
    {
      "inputs": [
        {
          "internalType": "address",
          "name": "owner",
          "type": "address"
        }
      ],
      "name": "balanceOf",
      "outputs": [
        {
          "internalType": "uint256",
          "name": "",
          "type": "uint256"
        }
      ],
      "stateMutability": "view",
      "type": "function",
      "constant": true
    },
    {
      "inputs": [
        {
          "internalType": "uint256",
          "name": "tokenId",
          "type": "uint256"
        }
      ],
      "name": "getApproved",
      "outputs": [
        {
          "internalType": "address",
          "name": "",
          "type": "address"
        }
      ],
      "stateMutability": "view",
      "type": "function",
      "constant": true
    },
    {
      "inputs": [
        {
          "internalType": "address",
          "name": "owner",
          "type": "address"
        },
        {
          "internalType": "address",
          "name": "operator",
          "type": "address"
        }
      ],
      "name": "isApprovedForAll",
      "outputs": [
        {
          "internalType": "bool",
          "name": "",
          "type": "bool"
        }
      ],
      "stateMutability": "view",
      "type": "function",
      "constant": true
    },
    {
      "inputs": [],
      "name": "name",
      "outputs": [
        {
          "internalType": "string",
          "name": "",
          "type": "string"
        }
      ],
      "stateMutability": "view",
      "type": "function",
      "constant": true
    },
    {
      "inputs": [
        {
          "internalType": "uint256",
          "name": "tokenId",
          "type": "uint256"
        }
      ],
      "name": "ownerOf",
      "outputs": [
        {
          "internalType": "address",
          "name": "",
          "type": "address"
        }
      ],
      "stateMutability": "view",
      "type": "function",
      "constant": true
    },
    {
      "inputs": [
        {
          "internalType": "address",
          "name": "from",
          "type": "address"
        },
        {
          "internalType": "address",
          "name": "to",
          "type": "address"
        },
        {
          "internalType": "uint256",
          "name": "tokenId",
          "type": "uint256"
        }
      ],
      "name": "safeTransferFrom",
      "outputs": [],
      "stateMutability": "nonpayable",
      "type": "function"
    },
    {
      "inputs": [
        {
          "internalType": "address",
          "name": "from",
          "type": "address"
        },
        {
          "internalType": "address",
          "name": "to",
          "type": "address"
        },
        {
          "internalType": "uint256",
          "name": "tokenId",
          "type": "uint256"
        },
        {
          "internalType": "bytes",
          "name": "data",
          "type": "bytes"
        }
      ],
      "name": "safeTransferFrom",
      "outputs": [],
      "stateMutability": "nonpayable",
      "type": "function"
    },
    {
      "inputs": [
        {
          "internalType": "address",
          "name": "operator",
          "type": "address"
        },
        {
          "internalType": "bool",
          "name": "approved",
          "type": "bool"
        }
      ],
      "name": "setApprovalForAll",
      "outputs": [],
      "stateMutability": "nonpayable",
      "type": "function"
    },
    {
      "inputs": [
        {
          "internalType": "bytes4",
          "name": "interfaceId",
          "type": "bytes4"
        }
      ],
      "name": "supportsInterface",
      "outputs": [
        {
          "internalType": "bool",
          "name": "",
          "type": "bool"
        }
      ],
      "stateMutability": "view",
      "type": "function",
      "constant": true
    },
    {
      "inputs": [],
      "name": "symbol",
      "outputs": [
        {
          "internalType": "string",
          "name": "",
          "type": "string"
        }
      ],
      "stateMutability": "view",
      "type": "function",
      "constant": true
    },
    {
      "inputs": [
        {
          "internalType": "uint256",
          "name": "",
          "type": "uint256"
        }
      ],
      "name": "tokenMetadata",
      "outputs": [
        {
          "internalType": "uint256",
          "name": "healthPoints",
          "type": "uint256"
        },
        {
          "internalType": "uint256",
          "name": "rollingAverage",
          "type": "uint256"
        },
        {
          "internalType": "string",
          "name": "userId",
          "type": "string"
        },
        {
          "internalType": "uint256",
          "name": "coverageAmount",
          "type": "uint256"
        },
        {
          "internalType": "uint256",
          "name": "premiumAmount",
          "type": "uint256"
        },
        {
          "internalType": "uint256",
          "name": "coverageDuration",
          "type": "uint256"
        }
      ],
      "stateMutability": "view",
      "type": "function",
      "constant": true
    },
    {
      "inputs": [
        {
          "internalType": "uint256",
          "name": "tokenId",
          "type": "uint256"
        }
      ],
      "name": "tokenURI",
      "outputs": [
        {
          "internalType": "string",
          "name": "",
          "type": "string"
        }
      ],
      "stateMutability": "view",
      "type": "function",
      "constant": true
    },
    {
      "inputs": [
        {
          "internalType": "address",
          "name": "from",
          "type": "address"
        },
        {
          "internalType": "address",
          "name": "to",
          "type": "address"
        },
        {
          "internalType": "uint256",
          "name": "tokenId",
          "type": "uint256"
        }
      ],
      "name": "transferFrom",
      "outputs": [],
      "stateMutability": "nonpayable",
      "type": "function"
    },
    {
      "inputs": [
        {
          "internalType": "address",
          "name": "recipient",
          "type": "address"
        },
        {
          "internalType": "uint256",
          "name": "healthPoints",
          "type": "uint256"
        },
        {
          "internalType": "string",
          "name": "userId",
          "type": "string"
        },
        {
          "internalType": "uint256",
          "name": "coverageAmount",
          "type": "uint256"
        },
        {
          "internalType": "uint256",
          "name": "premiumAmount",
          "type": "uint256"
        },
        {
          "internalType": "uint256",
          "name": "coverageDuration",
          "type": "uint256"
        }
      ],
      "name": "mintPolicyNFT",
      "outputs": [
        {
          "internalType": "uint256",
          "name": "",
          "type": "uint256"
        }
      ],
      "stateMutability": "nonpayable",
      "type": "function"
    },
    {
      "inputs": [
        {
          "internalType": "uint256",
          "name": "tokenId",
          "type": "uint256"
        },
        {
          "internalType": "uint256",
          "name": "newHealthPoints",
          "type": "uint256"
        },
        {
          "internalType": "uint256",
          "name": "newCoverageAmount",
          "type": "uint256"
        },
        {
          "internalType": "uint256",
          "name": "newPremiumAmount",
          "type": "uint256"
        }
      ],
      "name": "updatePolicyNFT",
      "outputs": [],
      "stateMutability": "nonpayable",
      "type": "function"
    },
    {
      "inputs": [
        {
          "internalType": "uint256",
          "name": "tokenId",
          "type": "uint256"
        }
      ],
      "name": "getPolicyNFTMetadata",
      "outputs": [
        {
          "components": [
            {
              "internalType": "uint256",
              "name": "healthPoints",
              "type": "uint256"
            },
            {
              "internalType": "uint256",
              "name": "rollingAverage",
              "type": "uint256"
            },
            {
              "internalType": "string",
              "name": "userId",
              "type": "string"
            },
            {
              "internalType": "uint256",
              "name": "coverageAmount",
              "type": "uint256"
            },
            {
              "internalType": "uint256",
              "name": "premiumAmount",
              "type": "uint256"
            },
            {
              "internalType": "uint256",
              "name": "coverageDuration",
              "type": "uint256"
            }
          ],
          "internalType": "struct PolicyNFT.NFTMetadata",
          "name": "",
          "type": "tuple"
        }
      ],
      "stateMutability": "view",
      "type": "function",
      "constant": true
    }
  ],
  "bytecode": "0x608060405234801562000010575f80fd5b506040518060400160405280600981526020017f506f6c6963794e465400000000000000000000000000000000000000000000008152506040518060400160405280600481526020017f504e465400000000000000000000000000000000000000000000000000000000815250815f90816200008d919062000313565b5080600190816200009f919062000313565b5050505f600681905550620003f7565b5f81519050919050565b7f4e487b71000000000000000000000000000000000000000000000000000000005f52604160045260245ffd5b7f4e487b71000000000000000000000000000000000000000000000000000000005f52602260045260245ffd5b5f60028204905060018216806200012b57607f821691505b602082108103620001415762000140620000e6565b5b50919050565b5f819050815f5260205f209050919050565b5f6020601f8301049050919050565b5f82821b905092915050565b5f60088302620001a57fffffffffffffffffffffffffffffffffffffffffffffffffffffffffffffffff8262000168565b620001b1868362000168565b95508019841693508086168417925050509392505050565b5f819050919050565b5f819050919050565b5f620001fb620001f5620001ef84620001c9565b620001d2565b620001c9565b9050919050565b5f819050919050565b6200021683620001db565b6200022e620002258262000202565b84845462000174565b825550505050565b5f90565b6200024462000236565b620002518184846200020b565b505050565b5b8181101562000278576200026c5f826200023a565b60018101905062000257565b5050565b601f821115620002c757620002918162000147565b6200029c8462000159565b81016020851015620002ac578190505b620002c4620002bb8562000159565b83018262000256565b50505b505050565b5f82821c905092915050565b5f620002e95f1984600802620002cc565b1980831691505092915050565b5f620003038383620002d8565b9150826002028217905092915050565b6200031e82620000af565b67ffffffffffffffff8111156200033a5762000339620000b9565b5b62000346825462000113565b620003538282856200027c565b5f60209050601f83116001811462000389575f841562000374578287015190505b620003808582620002f6565b865550620003ef565b601f198416620003998662000147565b5f5b82811015620003c2578489015182556001820191506020850194506020810190506200039b565b86831015620003e25784890151620003de601f891682620002d8565b8355505b6001600288020188555050505b505050505050565b61279680620004055f395ff3fe608060405234801561000f575f80fd5b5060043610610109575f3560e01c80636352211e116100a0578063a22cb4651161006f578063a22cb465146102de578063a2aff12c146102fa578063b88d4fde1461032a578063c87b56dd14610346578063e985e9c51461037657610109565b80636352211e1461022b5780636914db601461025b57806370a082311461029057806395d89b41146102c057610109565b8063095ea7b3116100dc578063095ea7b3146101bb5780630f349f77146101d757806323b872dd146101f357806342842e0e1461020f57610109565b806301ffc9a71461010d578063046fa1791461013d57806306fdde031461016d578063081812fc1461018b575b5f80fd5b610127600480360381019061012291906119c5565b6103a6565b6040516101349190611a0a565b60405180910390f35b61015760048036038101906101529190611bec565b610487565b6040516101649190611ca0565b60405180910390f35b61017561057f565b6040516101829190611d33565b60405180910390f35b6101a560048036038101906101a09190611d53565b61060e565b6040516101b29190611d8d565b60405180910390f35b6101d560048036038101906101d09190611da6565b610629565b005b6101f160048036038101906101ec9190611de4565b61063f565b005b61020d60048036038101906102089190611e48565b6106d6565b005b61022960048036038101906102249190611e48565b6107d5565b005b61024560048036038101906102409190611d53565b6107f4565b6040516102529190611d8d565b60405180910390f35b61027560048036038101906102709190611d53565b610805565b60405161028796959493929190611e98565b60405180910390f35b6102aa60048036038101906102a59190611efe565b6108c3565b6040516102b79190611ca0565b60405180910390f35b6102c8610979565b6040516102d59190611d33565b60405180910390f35b6102f860048036038101906102f39190611f53565b610a09565b005b610314600480360381019061030f9190611d53565b610a1f565b604051610321919061206e565b60405180910390f35b610344600480360381019061033f919061212c565b610b15565b005b610360600480360381019061035b9190611d53565b610b3a565b60405161036d9190611d33565b60405180910390f35b610390600480360381019061038b91906121ac565b610ba0565b60405161039d9190611a0a565b60405180910390f35b5f7f80ac58cd000000000000000000000000000000000000000000000000000000007bffffffffffffffffffffffffffffffffffffffffffffffffffffffff1916827bffffffffffffffffffffffffffffffffffffffffffffffffffffffff1916148061047057507f5b5e139f000000000000000000000000000000000000000000000000000000007bffffffffffffffffffffffffffffffffffffffffffffffffffffffff1916827bffffffffffffffffffffffffffffffffffffffffffffffffffffffff1916145b80610480575061047f82610c2e565b5b9050919050565b5f60065f81548092919061049a90612217565b91905055505f60065490506104af8882610c97565b6040518060c001604052808881526020018881526020018781526020018681526020018581526020018481525060075f8381526020019081526020015f205f820151815f01556020820151816001015560408201518160020190816105149190612458565b50606082015181600301556080820151816004015560a082015181600501559050507f5803e3f34d2af0e061b59d5f4c0e1d968257460be43c9a48ade6ed0297f8d37f81898960405161056993929190612527565b60405180910390a1809150509695505050505050565b60605f805461058d9061228b565b80601f01602080910402602001604051908101604052809291908181526020018280546105b99061228b565b80156106045780601f106105db57610100808354040283529160200191610604565b820191905f5260205f20905b8154815290600101906020018083116105e757829003601f168201915b5050505050905090565b5f61061882610d8a565b5061062282610e10565b9050919050565b61063b8282610636610e49565b610e50565b5050565b610648846107f4565b508260075f8681526020019081526020015f205f01819055508160075f8681526020019081526020015f20600301819055508060075f8681526020019081526020015f20600401819055507fb33593c926ab18d0bce168b467bc912bbd9065bdbea7e25e12a039cbeaa78178848484846040516106c8949392919061255c565b60405180910390a150505050565b5f73ffffffffffffffffffffffffffffffffffffffff168273ffffffffffffffffffffffffffffffffffffffff1603610746575f6040517f64a0ae9200000000000000000000000000000000000000000000000000000000815260040161073d9190611d8d565b60405180910390fd5b5f6107598383610754610e49565b610e62565b90508373ffffffffffffffffffffffffffffffffffffffff168173ffffffffffffffffffffffffffffffffffffffff16146107cf578382826040517f64283d7b0000000000000000000000000000000000000000000000000000000081526004016107c69392919061259f565b60405180910390fd5b50505050565b6107ef83838360405180602001604052805f815250610b15565b505050565b5f6107fe82610d8a565b9050919050565b6007602052805f5260405f205f91509050805f0154908060010154908060020180546108309061228b565b80601f016020809104026020016040519081016040528092919081815260200182805461085c9061228b565b80156108a75780601f1061087e576101008083540402835291602001916108a7565b820191905f5260205f20905b81548152906001019060200180831161088a57829003601f168201915b5050505050908060030154908060040154908060050154905086565b5f8073ffffffffffffffffffffffffffffffffffffffff168273ffffffffffffffffffffffffffffffffffffffff1603610934575f6040517f89c62b6400000000000000000000000000000000000000000000000000000000815260040161092b9190611d8d565b60405180910390fd5b60035f8373ffffffffffffffffffffffffffffffffffffffff1673ffffffffffffffffffffffffffffffffffffffff1681526020019081526020015f20549050919050565b6060600180546109889061228b565b80601f01602080910402602001604051908101604052809291908181526020018280546109b49061228b565b80156109ff5780601f106109d6576101008083540402835291602001916109ff565b820191905f5260205f20905b8154815290600101906020018083116109e257829003601f168201915b5050505050905090565b610a1b610a14610e49565b838361106d565b5050565b610a2761192e565b610a30826107f4565b5060075f8381526020019081526020015f206040518060c00160405290815f820154815260200160018201548152602001600282018054610a709061228b565b80601f0160208091040260200160405190810160405280929190818152602001828054610a9c9061228b565b8015610ae75780601f10610abe57610100808354040283529160200191610ae7565b820191905f5260205f20905b815481529060010190602001808311610aca57829003601f168201915b5050505050815260200160038201548152602001600482015481526020016005820154815250509050919050565b610b208484846106d6565b610b34610b2b610e49565b858585856111d6565b50505050565b6060610b4582610d8a565b505f610b4f611382565b90505f815111610b6d5760405180602001604052805f815250610b98565b80610b7784611398565b604051602001610b8892919061260e565b6040516020818303038152906040525b915050919050565b5f60055f8473ffffffffffffffffffffffffffffffffffffffff1673ffffffffffffffffffffffffffffffffffffffff1681526020019081526020015f205f8373ffffffffffffffffffffffffffffffffffffffff1673ffffffffffffffffffffffffffffffffffffffff1681526020019081526020015f205f9054906101000a900460ff16905092915050565b5f7f01ffc9a7000000000000000000000000000000000000000000000000000000007bffffffffffffffffffffffffffffffffffffffffffffffffffffffff1916827bffffffffffffffffffffffffffffffffffffffffffffffffffffffff1916149050919050565b5f73ffffffffffffffffffffffffffffffffffffffff168273ffffffffffffffffffffffffffffffffffffffff1603610d07575f6040517f64a0ae92000000000000000000000000000000000000000000000000000000008152600401610cfe9190611d8d565b60405180910390fd5b5f610d1383835f610e62565b90505f73ffffffffffffffffffffffffffffffffffffffff168173ffffffffffffffffffffffffffffffffffffffff1614610d85575f6040517f73c6ac6e000000000000000000000000000000000000000000000000000000008152600401610d7c9190611d8d565b60405180910390fd5b505050565b5f80610d9583611462565b90505f73ffffffffffffffffffffffffffffffffffffffff168173ffffffffffffffffffffffffffffffffffffffff1603610e0757826040517f7e273289000000000000000000000000000000000000000000000000000000008152600401610dfe9190611ca0565b60405180910390fd5b80915050919050565b5f60045f8381526020019081526020015f205f9054906101000a900473ffffffffffffffffffffffffffffffffffffffff169050919050565b5f33905090565b610e5d838383600161149b565b505050565b5f80610e6d84611462565b90505f73ffffffffffffffffffffffffffffffffffffffff168373ffffffffffffffffffffffffffffffffffffffff1614610eae57610ead81848661165a565b5b5f73ffffffffffffffffffffffffffffffffffffffff168173ffffffffffffffffffffffffffffffffffffffff1614610f3957610eed5f855f8061149b565b600160035f8373ffffffffffffffffffffffffffffffffffffffff1673ffffffffffffffffffffffffffffffffffffffff1681526020019081526020015f205f82825403925050819055505b5f73ffffffffffffffffffffffffffffffffffffffff168573ffffffffffffffffffffffffffffffffffffffff1614610fb857600160035f8773ffffffffffffffffffffffffffffffffffffffff1673ffffffffffffffffffffffffffffffffffffffff1681526020019081526020015f205f82825401925050819055505b8460025f8681526020019081526020015f205f6101000a81548173ffffffffffffffffffffffffffffffffffffffff021916908373ffffffffffffffffffffffffffffffffffffffff160217905550838573ffffffffffffffffffffffffffffffffffffffff168273ffffffffffffffffffffffffffffffffffffffff167fddf252ad1be2c89b69c2b068fc378daa952ba7f163c4a11628f55a4df523b3ef60405160405180910390a4809150509392505050565b5f73ffffffffffffffffffffffffffffffffffffffff168273ffffffffffffffffffffffffffffffffffffffff16036110dd57816040517f5b08ba180000000000000000000000000000000000000000000000000000000081526004016110d49190611d8d565b60405180910390fd5b8060055f8573ffffffffffffffffffffffffffffffffffffffff1673ffffffffffffffffffffffffffffffffffffffff1681526020019081526020015f205f8473ffffffffffffffffffffffffffffffffffffffff1673ffffffffffffffffffffffffffffffffffffffff1681526020019081526020015f205f6101000a81548160ff0219169083151502179055508173ffffffffffffffffffffffffffffffffffffffff168373ffffffffffffffffffffffffffffffffffffffff167f17307eab39ab6107e8899845ad3d59bd9653f200f220920489ca2b5937696c31836040516111c99190611a0a565b60405180910390a3505050565b5f8373ffffffffffffffffffffffffffffffffffffffff163b111561137b578273ffffffffffffffffffffffffffffffffffffffff1663150b7a02868685856040518563ffffffff1660e01b81526004016112349493929190612683565b6020604051808303815f875af192505050801561126f57506040513d601f19601f8201168201806040525081019061126c91906126e1565b60015b6112f0573d805f811461129d576040519150601f19603f3d011682016040523d82523d5f602084013e6112a2565b606091505b505f8151036112e857836040517f64a0ae920000000000000000000000000000000000000000000000000000000081526004016112df9190611d8d565b60405180910390fd5b805181602001fd5b63150b7a0260e01b7bffffffffffffffffffffffffffffffffffffffffffffffffffffffff1916817bffffffffffffffffffffffffffffffffffffffffffffffffffffffff19161461137957836040517f64a0ae920000000000000000000000000000000000000000000000000000000081526004016113709190611d8d565b60405180910390fd5b505b5050505050565b606060405180602001604052805f815250905090565b60605f60016113a68461171d565b0190505f8167ffffffffffffffff8111156113c4576113c3611ac8565b5b6040519080825280601f01601f1916602001820160405280156113f65781602001600182028036833780820191505090505b5090505f82602001820190505b600115611457578080600190039150507f3031323334353637383961626364656600000000000000000000000000000000600a86061a8153600a858161144c5761144b61270c565b5b0494505f8503611403575b819350505050919050565b5f60025f8381526020019081526020015f205f9054906101000a900473ffffffffffffffffffffffffffffffffffffffff169050919050565b80806114d357505f73ffffffffffffffffffffffffffffffffffffffff168273ffffffffffffffffffffffffffffffffffffffff1614155b15611605575f6114e284610d8a565b90505f73ffffffffffffffffffffffffffffffffffffffff168373ffffffffffffffffffffffffffffffffffffffff161415801561154c57508273ffffffffffffffffffffffffffffffffffffffff168173ffffffffffffffffffffffffffffffffffffffff1614155b801561155f575061155d8184610ba0565b155b156115a157826040517fa9fbf51f0000000000000000000000000000000000000000000000000000000081526004016115989190611d8d565b60405180910390fd5b811561160357838573ffffffffffffffffffffffffffffffffffffffff168273ffffffffffffffffffffffffffffffffffffffff167f8c5be1e5ebec7d5bd14f71427d1e84f3dd0314c0f7b2291e5b200ac8c7c3b92560405160405180910390a45b505b8360045f8581526020019081526020015f205f6101000a81548173ffffffffffffffffffffffffffffffffffffffff021916908373ffffffffffffffffffffffffffffffffffffffff16021790555050505050565b61166583838361186e565b611718575f73ffffffffffffffffffffffffffffffffffffffff168373ffffffffffffffffffffffffffffffffffffffff16036116d957806040517f7e2732890000000000000000000000000000000000000000000000000000000081526004016116d09190611ca0565b60405180910390fd5b81816040517f177e802f00000000000000000000000000000000000000000000000000000000815260040161170f929190612739565b60405180910390fd5b505050565b5f805f90507a184f03e93ff9f4daa797ed6e38ed64bf6a1f0100000000000000008310611779577a184f03e93ff9f4daa797ed6e38ed64bf6a1f010000000000000000838161176f5761176e61270c565b5b0492506040810190505b6d04ee2d6d415b85acef810000000083106117b6576d04ee2d6d415b85acef810000000083816117ac576117ab61270c565b5b0492506020810190505b662386f26fc1000083106117e557662386f26fc1000083816117db576117da61270c565b5b0492506010810190505b6305f5e100831061180e576305f5e10083816118045761180361270c565b5b0492506008810190505b61271083106118335761271083816118295761182861270c565b5b0492506004810190505b60648310611856576064838161184c5761184b61270c565b5b0492506002810190505b600a8310611865576001810190505b80915050919050565b5f8073ffffffffffffffffffffffffffffffffffffffff168373ffffffffffffffffffffffffffffffffffffffff161415801561192557508273ffffffffffffffffffffffffffffffffffffffff168473ffffffffffffffffffffffffffffffffffffffff1614806118e657506118e58484610ba0565b5b8061192457508273ffffffffffffffffffffffffffffffffffffffff1661190c83610e10565b73ffffffffffffffffffffffffffffffffffffffff16145b5b90509392505050565b6040518060c001604052805f81526020015f8152602001606081526020015f81526020015f81526020015f81525090565b5f604051905090565b5f80fd5b5f80fd5b5f7fffffffff0000000000000000000000000000000000000000000000000000000082169050919050565b6119a481611970565b81146119ae575f80fd5b50565b5f813590506119bf8161199b565b92915050565b5f602082840312156119da576119d9611968565b5b5f6119e7848285016119b1565b91505092915050565b5f8115159050919050565b611a04816119f0565b82525050565b5f602082019050611a1d5f8301846119fb565b92915050565b5f73ffffffffffffffffffffffffffffffffffffffff82169050919050565b5f611a4c82611a23565b9050919050565b611a5c81611a42565b8114611a66575f80fd5b50565b5f81359050611a7781611a53565b92915050565b5f819050919050565b611a8f81611a7d565b8114611a99575f80fd5b50565b5f81359050611aaa81611a86565b92915050565b5f80fd5b5f80fd5b5f601f19601f8301169050919050565b7f4e487b71000000000000000000000000000000000000000000000000000000005f52604160045260245ffd5b611afe82611ab8565b810181811067ffffffffffffffff82111715611b1d57611b1c611ac8565b5b80604052505050565b5f611b2f61195f565b9050611b3b8282611af5565b919050565b5f67ffffffffffffffff821115611b5a57611b59611ac8565b5b611b6382611ab8565b9050602081019050919050565b828183375f83830152505050565b5f611b90611b8b84611b40565b611b26565b905082815260208101848484011115611bac57611bab611ab4565b5b611bb7848285611b70565b509392505050565b5f82601f830112611bd357611bd2611ab0565b5b8135611be3848260208601611b7e565b91505092915050565b5f805f805f8060c08789031215611c0657611c05611968565b5b5f611c1389828a01611a69565b9650506020611c2489828a01611a9c565b955050604087013567ffffffffffffffff811115611c4557611c4461196c565b5b611c5189828a01611bbf565b9450506060611c6289828a01611a9c565b9350506080611c7389828a01611a9c565b92505060a0611c8489828a01611a9c565b9150509295509295509295565b611c9a81611a7d565b82525050565b5f602082019050611cb35f830184611c91565b92915050565b5f81519050919050565b5f82825260208201905092915050565b5f5b83811015611cf0578082015181840152602081019050611cd5565b5f8484015250505050565b5f611d0582611cb9565b611d0f8185611cc3565b9350611d1f818560208601611cd3565b611d2881611ab8565b840191505092915050565b5f6020820190508181035f830152611d4b8184611cfb565b905092915050565b5f60208284031215611d6857611d67611968565b5b5f611d7584828501611a9c565b91505092915050565b611d8781611a42565b82525050565b5f602082019050611da05f830184611d7e565b92915050565b5f8060408385031215611dbc57611dbb611968565b5b5f611dc985828601611a69565b9250506020611dda85828601611a9c565b9150509250929050565b5f805f8060808587031215611dfc57611dfb611968565b5b5f611e0987828801611a9c565b9450506020611e1a87828801611a9c565b9350506040611e2b87828801611a9c565b9250506060611e3c87828801611a9c565b91505092959194509250565b5f805f60608486031215611e5f57611e5e611968565b5b5f611e6c86828701611a69565b9350506020611e7d86828701611a69565b9250506040611e8e86828701611a9c565b9150509250925092565b5f60c082019050611eab5f830189611c91565b611eb86020830188611c91565b8181036040830152611eca8187611cfb565b9050611ed96060830186611c91565b611ee66080830185611c91565b611ef360a0830184611c91565b979650505050505050565b5f60208284031215611f1357611f12611968565b5b5f611f2084828501611a69565b91505092915050565b611f32816119f0565b8114611f3c575f80fd5b50565b5f81359050611f4d81611f29565b92915050565b5f8060408385031215611f6957611f68611968565b5b5f611f7685828601611a69565b9250506020611f8785828601611f3f565b9150509250929050565b611f9a81611a7d565b82525050565b5f82825260208201905092915050565b5f611fba82611cb9565b611fc48185611fa0565b9350611fd4818560208601611cd3565b611fdd81611ab8565b840191505092915050565b5f60c083015f830151611ffd5f860182611f91565b5060208301516120106020860182611f91565b50604083015184820360408601526120288282611fb0565b915050606083015161203d6060860182611f91565b5060808301516120506080860182611f91565b5060a083015161206360a0860182611f91565b508091505092915050565b5f6020820190508181035f8301526120868184611fe8565b905092915050565b5f67ffffffffffffffff8211156120a8576120a7611ac8565b5b6120b182611ab8565b9050602081019050919050565b5f6120d06120cb8461208e565b611b26565b9050828152602081018484840111156120ec576120eb611ab4565b5b6120f7848285611b70565b509392505050565b5f82601f83011261211357612112611ab0565b5b81356121238482602086016120be565b91505092915050565b5f805f806080858703121561214457612143611968565b5b5f61215187828801611a69565b945050602061216287828801611a69565b935050604061217387828801611a9c565b925050606085013567ffffffffffffffff8111156121945761219361196c565b5b6121a0878288016120ff565b91505092959194509250565b5f80604083850312156121c2576121c1611968565b5b5f6121cf85828601611a69565b92505060206121e085828601611a69565b9150509250929050565b7f4e487b71000000000000000000000000000000000000000000000000000000005f52601160045260245ffd5b5f61222182611a7d565b91507fffffffffffffffffffffffffffffffffffffffffffffffffffffffffffffffff8203612253576122526121ea565b5b600182019050919050565b7f4e487b71000000000000000000000000000000000000000000000000000000005f52602260045260245ffd5b5f60028204905060018216806122a257607f821691505b6020821081036122b5576122b461225e565b5b50919050565b5f819050815f5260205f209050919050565b5f6020601f8301049050919050565b5f82821b905092915050565b5f600883026123177fffffffffffffffffffffffffffffffffffffffffffffffffffffffffffffffff826122dc565b61232186836122dc565b95508019841693508086168417925050509392505050565b5f819050919050565b5f61235c61235761235284611a7d565b612339565b611a7d565b9050919050565b5f819050919050565b61237583612342565b61238961238182612363565b8484546122e8565b825550505050565b5f90565b61239d612391565b6123a881848461236c565b505050565b5b818110156123cb576123c05f82612395565b6001810190506123ae565b5050565b601f821115612410576123e1816122bb565b6123ea846122cd565b810160208510156123f9578190505b61240d612405856122cd565b8301826123ad565b50505b505050565b5f82821c905092915050565b5f6124305f1984600802612415565b1980831691505092915050565b5f6124488383612421565b9150826002028217905092915050565b61246182611cb9565b67ffffffffffffffff81111561247a57612479611ac8565b5b612484825461228b565b61248f8282856123cf565b5f60209050601f8311600181146124c0575f84156124ae578287015190505b6124b8858261243d565b86555061251f565b601f1984166124ce866122bb565b5f5b828110156124f5578489015182556001820191506020850194506020810190506124d0565b86831015612512578489015161250e601f891682612421565b8355505b6001600288020188555050505b505050505050565b5f60608201905061253a5f830186611c91565b6125476020830185611d7e565b6125546040830184611c91565b949350505050565b5f60808201905061256f5f830187611c91565b61257c6020830186611c91565b6125896040830185611c91565b6125966060830184611c91565b95945050505050565b5f6060820190506125b25f830186611d7e565b6125bf6020830185611c91565b6125cc6040830184611d7e565b949350505050565b5f81905092915050565b5f6125e882611cb9565b6125f281856125d4565b9350612602818560208601611cd3565b80840191505092915050565b5f61261982856125de565b915061262582846125de565b91508190509392505050565b5f81519050919050565b5f82825260208201905092915050565b5f61265582612631565b61265f818561263b565b935061266f818560208601611cd3565b61267881611ab8565b840191505092915050565b5f6080820190506126965f830187611d7e565b6126a36020830186611d7e565b6126b06040830185611c91565b81810360608301526126c2818461264b565b905095945050505050565b5f815190506126db8161199b565b92915050565b5f602082840312156126f6576126f5611968565b5b5f612703848285016126cd565b91505092915050565b7f4e487b71000000000000000000000000000000000000000000000000000000005f52601260045260245ffd5b5f60408201905061274c5f830185611d7e565b6127596020830184611c91565b939250505056fea2646970667358221220d9f11d43a00c2be2c20d48db7e70ec4e5534076e5cf3c40a19cb07a65f1a27a864736f6c63430008140033",
  "immutableReferences": {},
  "source": "// SPDX-License-Identifier: MIT\npragma solidity ^0.8.20;\n\nimport \"@openzeppelin/contracts/token/ERC721/ERC721.sol\";\n\ncontract PolicyNFT is ERC721 {\n    uint256 private _tokenIdCounter; // Simple counter for token IDs\n\n    // Struct to store NFT metadata\n    struct NFTMetadata {\n        uint256 healthPoints;    // Current health points\n        uint256 rollingAverage;  // Rolling average of health points\n        string userId;           // Unique identifier for the user\n        uint256 coverageAmount;  // Coverage amount in wei or tokens\n        uint256 premiumAmount;   // Premium amount in wei or tokens\n        uint256 coverageDuration; // Coverage duration in days\n    }\n\n    // Mapping to store metadata for each token\n    mapping(uint256 => NFTMetadata) public tokenMetadata;\n\n    // Events\n    event PolicyNFTMinted(uint256 tokenId, address recipient, uint256 healthPoints);\n    event PolicyNFTUpdated(uint256 tokenId, uint256 newHealthPoints, uint256 newCoverageAmount, uint256 newPremiumAmount);\n\n    constructor() ERC721(\"PolicyNFT\", \"PNFT\") {\n        _tokenIdCounter = 0; // Initialize the counter\n    }\n\n    // Mint a new NFT for a policy\n    function mintPolicyNFT(\n        address recipient,\n        uint256 healthPoints,\n        string memory userId,\n        uint256 coverageAmount,\n        uint256 premiumAmount,\n        uint256 coverageDuration\n    ) public returns (uint256) {\n        _tokenIdCounter++; // Increment the counter\n        uint256 newTokenId = _tokenIdCounter; // Use the current counter value as the token ID\n\n        _mint(recipient, newTokenId);\n\n        // Store metadata for the NFT\n        tokenMetadata[newTokenId] = NFTMetadata({\n            healthPoints: healthPoints,\n            rollingAverage: healthPoints, // Initialize rolling average\n            userId: userId,\n            coverageAmount: coverageAmount,\n            premiumAmount: premiumAmount,\n            coverageDuration: coverageDuration\n        });\n\n        emit PolicyNFTMinted(newTokenId, recipient, healthPoints);\n        return newTokenId;\n    }\n\n    // Update health points, coverage, and premium for an NFT\n    function updatePolicyNFT(\n        uint256 tokenId,\n        uint256 newHealthPoints,\n        uint256 newCoverageAmount,\n        uint256 newPremiumAmount\n    ) public {\n        // Use ownerOf to check if the token exists (reverts if it doesn't)\n        ownerOf(tokenId);\n\n        // Update metadata\n        tokenMetadata[tokenId].healthPoints = newHealthPoints;\n        tokenMetadata[tokenId].coverageAmount = newCoverageAmount;\n        tokenMetadata[tokenId].premiumAmount = newPremiumAmount;\n\n        emit PolicyNFTUpdated(tokenId, newHealthPoints, newCoverageAmount, newPremiumAmount);\n    }\n\n    // Get metadata for an NFT\n    function getPolicyNFTMetadata(uint256 tokenId) public view returns (NFTMetadata memory) {\n        // Use ownerOf to check if the token exists (reverts if it doesn't)\n        ownerOf(tokenId);\n        return tokenMetadata[tokenId];\n    }\n}",
  "sourcePath": "/home/vrin/health-insurance-blockchain/contracts/PolicyNFT.sol",
  "compiler": {
    "name": "solc",
    "version": "0.8.20+commit.a1b79de6.Emscripten.clang"
  },
  "schemaVersion": "3.4.16",
  "updatedAt": "2025-03-09T01:44:31.704Z",
  "networkType": "ethereum",
  "devdoc": {
    "errors": {
      "ERC721IncorrectOwner(address,uint256,address)": [
        {
          "details": "Indicates an error related to the ownership over a particular token. Used in transfers.",
          "params": {
            "owner": "Address of the current owner of a token.",
            "sender": "Address whose tokens are being transferred.",
            "tokenId": "Identifier number of a token."
          }
        }
      ],
      "ERC721InsufficientApproval(address,uint256)": [
        {
          "details": "Indicates a failure with the `operator`s approval. Used in transfers.",
          "params": {
            "operator": "Address that may be allowed to operate on tokens without being their owner.",
            "tokenId": "Identifier number of a token."
          }
        }
      ],
      "ERC721InvalidApprover(address)": [
        {
          "details": "Indicates a failure with the `approver` of a token to be approved. Used in approvals.",
          "params": {
            "approver": "Address initiating an approval operation."
          }
        }
      ],
      "ERC721InvalidOperator(address)": [
        {
          "details": "Indicates a failure with the `operator` to be approved. Used in approvals.",
          "params": {
            "operator": "Address that may be allowed to operate on tokens without being their owner."
          }
        }
      ],
      "ERC721InvalidOwner(address)": [
        {
          "details": "Indicates that an address can't be an owner. For example, `address(0)` is a forbidden owner in ERC-20. Used in balance queries.",
          "params": {
            "owner": "Address of the current owner of a token."
          }
        }
      ],
      "ERC721InvalidReceiver(address)": [
        {
          "details": "Indicates a failure with the token `receiver`. Used in transfers.",
          "params": {
            "receiver": "Address to which tokens are being transferred."
          }
        }
      ],
      "ERC721InvalidSender(address)": [
        {
          "details": "Indicates a failure with the token `sender`. Used in transfers.",
          "params": {
            "sender": "Address whose tokens are being transferred."
          }
        }
      ],
      "ERC721NonexistentToken(uint256)": [
        {
          "details": "Indicates a `tokenId` whose `owner` is the zero address.",
          "params": {
            "tokenId": "Identifier number of a token."
          }
        }
      ]
    },
    "events": {
      "Approval(address,address,uint256)": {
        "details": "Emitted when `owner` enables `approved` to manage the `tokenId` token."
      },
      "ApprovalForAll(address,address,bool)": {
        "details": "Emitted when `owner` enables or disables (`approved`) `operator` to manage all of its assets."
      },
      "Transfer(address,address,uint256)": {
        "details": "Emitted when `tokenId` token is transferred from `from` to `to`."
      }
    },
    "kind": "dev",
    "methods": {
      "approve(address,uint256)": {
        "details": "See {IERC721-approve}."
      },
      "balanceOf(address)": {
        "details": "See {IERC721-balanceOf}."
      },
      "getApproved(uint256)": {
        "details": "See {IERC721-getApproved}."
      },
      "isApprovedForAll(address,address)": {
        "details": "See {IERC721-isApprovedForAll}."
      },
      "name()": {
        "details": "See {IERC721Metadata-name}."
      },
      "ownerOf(uint256)": {
        "details": "See {IERC721-ownerOf}."
      },
      "safeTransferFrom(address,address,uint256)": {
        "details": "See {IERC721-safeTransferFrom}."
      },
      "safeTransferFrom(address,address,uint256,bytes)": {
        "details": "See {IERC721-safeTransferFrom}."
      },
      "setApprovalForAll(address,bool)": {
        "details": "See {IERC721-setApprovalForAll}."
      },
      "supportsInterface(bytes4)": {
        "details": "See {IERC165-supportsInterface}."
      },
      "symbol()": {
        "details": "See {IERC721Metadata-symbol}."
      },
      "tokenURI(uint256)": {
        "details": "See {IERC721Metadata-tokenURI}."
      },
      "transferFrom(address,address,uint256)": {
        "details": "See {IERC721-transferFrom}."
      }
    },
    "version": 1
  },
  "userdoc": {
    "kind": "user",
    "methods": {},
    "version": 1
  }
}